{
  "_format": "hh-sol-artifact-1",
  "contractName": "MarketFactory",
  "sourceName": "contracts/MarketFactory.sol",
  "abi": [
    {
      "inputs": [
        {
          "internalType": "address",
          "name": "_market",
          "type": "address"
        },
        {
          "internalType": "address",
          "name": "_arbitrator",
          "type": "address"
        },
        {
          "internalType": "address",
          "name": "_realitio",
          "type": "address"
        },
        {
          "internalType": "address",
          "name": "_nftDescriptor",
          "type": "address"
        },
        {
          "internalType": "address",
          "name": "_manager",
          "type": "address"
        },
        {
          "internalType": "address",
          "name": "_governor",
          "type": "address"
        },
        {
          "internalType": "address",
          "name": "_protocolTraesury",
          "type": "address"
        },
        {
          "internalType": "uint256",
          "name": "_protocolFee",
          "type": "uint256"
        },
        {
          "internalType": "uint256",
          "name": "_submissionTimeout",
          "type": "uint256"
        }
      ],
      "stateMutability": "nonpayable",
      "type": "constructor"
    },
    {
      "anonymous": false,
      "inputs": [
        {
          "indexed": true,
          "internalType": "address",
          "name": "market",
          "type": "address"
        },
        {
          "indexed": true,
          "internalType": "bytes32",
          "name": "hash",
          "type": "bytes32"
        },
        {
          "indexed": false,
          "internalType": "address",
          "name": "manager",
          "type": "address"
        }
      ],
      "name": "NewMarket",
      "type": "event"
    },
    {
      "inputs": [],
      "name": "QUESTION_TIMEOUT",
      "outputs": [
        {
          "internalType": "uint32",
          "name": "",
          "type": "uint32"
        }
      ],
      "stateMutability": "view",
      "type": "function"
    },
    {
      "inputs": [],
      "name": "allMarkets",
      "outputs": [
        {
          "internalType": "contract Market[]",
          "name": "",
          "type": "address[]"
        }
      ],
      "stateMutability": "view",
      "type": "function"
    },
    {
      "inputs": [],
      "name": "arbitrator",
      "outputs": [
        {
          "internalType": "address",
          "name": "",
          "type": "address"
        }
      ],
      "stateMutability": "view",
      "type": "function"
    },
    {
      "inputs": [
        {
          "internalType": "address",
          "name": "_governor",
          "type": "address"
        }
      ],
      "name": "changeGovernor",
      "outputs": [],
      "stateMutability": "nonpayable",
      "type": "function"
    },
    {
      "inputs": [
        {
          "internalType": "address",
          "name": "_manager",
          "type": "address"
        }
      ],
      "name": "changeManager",
      "outputs": [],
      "stateMutability": "nonpayable",
      "type": "function"
    },
    {
      "inputs": [
        {
          "internalType": "address",
          "name": "_market",
          "type": "address"
        }
      ],
      "name": "changeMarket",
      "outputs": [],
      "stateMutability": "nonpayable",
      "type": "function"
    },
    {
      "inputs": [
        {
          "internalType": "uint256",
          "name": "_protocolFee",
          "type": "uint256"
        }
      ],
      "name": "changeProtocolFee",
      "outputs": [],
      "stateMutability": "nonpayable",
      "type": "function"
    },
    {
      "inputs": [
        {
          "internalType": "address",
          "name": "_protocolTraesury",
          "type": "address"
        }
      ],
      "name": "changeProtocolTreasury",
      "outputs": [],
      "stateMutability": "nonpayable",
      "type": "function"
    },
    {
      "inputs": [
        {
          "internalType": "string",
          "name": "marketName",
          "type": "string"
        },
        {
          "internalType": "string",
          "name": "marketSymbol",
          "type": "string"
        },
        {
          "internalType": "address",
          "name": "creator",
          "type": "address"
        },
        {
          "internalType": "uint256",
          "name": "creatorFee",
          "type": "uint256"
        },
        {
          "internalType": "uint256",
          "name": "closingTime",
          "type": "uint256"
        },
        {
          "internalType": "uint256",
          "name": "price",
          "type": "uint256"
        },
        {
          "internalType": "uint256",
          "name": "minBond",
          "type": "uint256"
        },
        {
          "components": [
            {
              "internalType": "uint256",
              "name": "templateID",
              "type": "uint256"
            },
            {
              "internalType": "string",
              "name": "question",
              "type": "string"
            },
            {
              "internalType": "uint32",
              "name": "openingTS",
              "type": "uint32"
            }
          ],
          "internalType": "struct MarketFactory.RealitioQuestion[]",
          "name": "questionsData",
          "type": "tuple[]"
        },
        {
          "internalType": "uint16[]",
          "name": "prizeWeights",
          "type": "uint16[]"
        }
      ],
      "name": "createMarket",
      "outputs": [
        {
          "internalType": "address",
          "name": "",
          "type": "address"
        }
      ],
      "stateMutability": "nonpayable",
      "type": "function"
    },
    {
      "inputs": [],
      "name": "governor",
      "outputs": [
        {
          "internalType": "address",
          "name": "",
          "type": "address"
        }
      ],
      "stateMutability": "view",
      "type": "function"
    },
    {
      "inputs": [],
      "name": "manager",
      "outputs": [
        {
          "internalType": "address",
          "name": "",
          "type": "address"
        }
      ],
      "stateMutability": "view",
      "type": "function"
    },
    {
      "inputs": [],
      "name": "market",
      "outputs": [
        {
          "internalType": "address",
          "name": "",
          "type": "address"
        }
      ],
      "stateMutability": "view",
      "type": "function"
    },
    {
      "inputs": [],
      "name": "marketCount",
      "outputs": [
        {
          "internalType": "uint256",
          "name": "",
          "type": "uint256"
        }
      ],
      "stateMutability": "view",
      "type": "function"
    },
    {
      "inputs": [
        {
          "internalType": "uint256",
          "name": "",
          "type": "uint256"
        }
      ],
      "name": "markets",
      "outputs": [
        {
          "internalType": "contract Market",
          "name": "",
          "type": "address"
        }
      ],
      "stateMutability": "view",
      "type": "function"
    },
    {
      "inputs": [],
      "name": "nftDescriptor",
      "outputs": [
        {
          "internalType": "address",
          "name": "",
          "type": "address"
        }
      ],
      "stateMutability": "view",
      "type": "function"
    },
    {
      "inputs": [],
      "name": "protocolFee",
      "outputs": [
        {
          "internalType": "uint256",
          "name": "",
          "type": "uint256"
        }
      ],
      "stateMutability": "view",
      "type": "function"
    },
    {
      "inputs": [],
      "name": "protocolTraesury",
      "outputs": [
        {
          "internalType": "address",
          "name": "",
          "type": "address"
        }
      ],
      "stateMutability": "view",
      "type": "function"
    },
    {
      "inputs": [],
      "name": "realitio",
      "outputs": [
        {
          "internalType": "address",
          "name": "",
          "type": "address"
        }
      ],
      "stateMutability": "view",
      "type": "function"
    },
    {
      "inputs": [],
      "name": "submissionTimeout",
      "outputs": [
        {
          "internalType": "uint256",
          "name": "",
          "type": "uint256"
        }
      ],
      "stateMutability": "view",
      "type": "function"
    }
  ],
  "bytecode": "0x6101006040523480156200001257600080fd5b506040516200198c3803806200198c8339810160408190526200003591620000f2565b600180546001600160a01b039a8b166001600160a01b03199182161790915597891660805295881660a05293871660c052600480549388169387169390931790925560028054918716918616919091179055600380549190951693169290921790925560055560e052620001cd565b60006001600160a01b0382165b92915050565b620000c281620000a4565b8114620000ce57600080fd5b50565b8051620000b181620000b7565b80620000c2565b8051620000b181620000de565b60008060008060008060008060006101208a8c031215620001165762000116600080fd5b6000620001248c8c620000d1565b9950506020620001378c828d01620000d1565b98505060406200014a8c828d01620000d1565b97505060606200015d8c828d01620000d1565b9650506080620001708c828d01620000d1565b95505060a0620001838c828d01620000d1565b94505060c0620001968c828d01620000d1565b93505060e0620001a98c828d01620000e5565b925050610100620001bd8c828d01620000e5565b9150509295985092959850929598565b60805160a05160c05160e05161174d6200023f600039600081816102b2015261061e01526000818161017c01526105da01526000818161028b015281816105fb015281816109b901528181610a200152610adb0152600081816101f5015281816109930152610b0c015261174d6000f3fe608060405234801561001057600080fd5b50600436106101215760003560e01c806380f55605116100ad578063bc8802a211610071578063bc8802a214610286578063c4bd8519146102ad578063e4c0aaf4146102d4578063ec979082146102e7578063fe687475146102ef57600080fd5b806380f5560514610217578063974dfdb91461022a578063a3fbbaae1461023d578063b0e21e8a14610250578063b1283e771461026657600080fd5b8063481c6a75116100f4578063481c6a751461019e5780634a3382e5146101b1578063549a71f3146101c85780635c3ef427146101db5780636cc6cde1146101f057600080fd5b80630c340a24146101265780633664fdce1461014f578063375a7cba146101625780634426757014610177575b600080fd5b600254610139906001600160a01b031681565b6040516101469190610bbe565b60405180910390f35b600354610139906001600160a01b031681565b61016a610302565b6040516101469190610c6b565b6101397f000000000000000000000000000000000000000000000000000000000000000081565b600454610139906001600160a01b031681565b6101bb6201fa4081565b6040516101469190610c8f565b6101396101d6366004610fa8565b610364565b6101ee6101e93660046110da565b610755565b005b6101397f000000000000000000000000000000000000000000000000000000000000000081565b600154610139906001600160a01b031681565b6101ee6102383660046110da565b6107a1565b6101ee61024b3660046110da565b6107ed565b61025960055481565b6040516101469190611101565b61027961027436600461110f565b610839565b6040516101469190611130565b6101397f000000000000000000000000000000000000000000000000000000000000000081565b6102597f000000000000000000000000000000000000000000000000000000000000000081565b6101ee6102e23660046110da565b610863565b600054610259565b6101ee6102fd36600461110f565b6108af565b6060600080548060200260200160405190810160405280929190818152602001828054801561035a57602002820191906000526020600020905b81546001600160a01b0316815260019091019060200180831161033c575b5050505050905090565b600154600090819061037e906001600160a01b03166108de565b90506000845167ffffffffffffffff81111561039c5761039c610c9d565b6040519080825280602002602001820160405280156103c5578160200160208202803683370190505b5090506000805b865181101561049b57898782815181106103e8576103e861113e565b60200260200101516040015163ffffffff16116104205760405162461bcd60e51b815260040161041790611154565b60405180910390fd5b60006104458883815181106104375761043761113e565b60200260200101518a610952565b9050828110156104675760405162461bcd60e51b8152600401610417906111d7565b8092508084838151811061047d5761047d61113e565b60209081029190910101525080610493816111fd565b9150506103cc565b50506004546000906104b5906001600160a01b03166108de565b9050806001600160a01b031663e251d7be8c8c600360009054906101000a90046001600160a01b0316600554886040518663ffffffff1660e01b8152600401610502959493929190611218565b600060405180830381600087803b15801561051c57600080fd5b505af1158015610530573d6000803e3d6000fd5b50506040805160a081018252600080825260208201819052918101919091526060808201819052608082015291506105659050565b606081018e9052608081018d9052600554610581908c90611264565b816000019061ffff16908161ffff1681525050600554816020019061ffff16908161ffff16815250508181604001906001600160a01b031690816001600160a01b031681525050836001600160a01b031663d0f9d46b827f00000000000000000000000000000000000000000000000000000000000000007f00000000000000000000000000000000000000000000000000000000000000008e8e7f00000000000000000000000000000000000000000000000000000000000000008a8e6040518963ffffffff1660e01b81526004016106629897969594939291906113f1565b600060405180830381600087803b15801561067c57600080fd5b505af1158015610690573d6000803e3d6000fd5b50505050826040516020016106a591906114b1565b60405160208183030381529060405280519060200120846001600160a01b03167fe92cfa7966c9604dbf55676f1f22a9683eecf797c049002df1d5267c4c7b7ea5846040516106f49190611130565b60405180910390a35050600080546001810182559080527f290decd9548b62a8d60345a988386fc84ba6bc95484008f6362f93160ef3e5630180546001600160a01b0319166001600160a01b038416179055509a9950505050505050505050565b6002546001600160a01b0316331461077f5760405162461bcd60e51b8152600401610417906114e2565b600180546001600160a01b0319166001600160a01b0392909216919091179055565b6002546001600160a01b031633146107cb5760405162461bcd60e51b8152600401610417906114e2565b600380546001600160a01b0319166001600160a01b0392909216919091179055565b6002546001600160a01b031633146108175760405162461bcd60e51b8152600401610417906114e2565b600480546001600160a01b0319166001600160a01b0392909216919091179055565b6000818154811061084957600080fd5b6000918252602090912001546001600160a01b0316905081565b6002546001600160a01b0316331461088d5760405162461bcd60e51b8152600401610417906114e2565b600280546001600160a01b0319166001600160a01b0392909216919091179055565b6002546001600160a01b031633146108d95760405162461bcd60e51b8152600401610417906114e2565b600555565b6000604051733d602d80600a3d3981f3363d3d373d3d3d363d7360601b81528260601b60148201526e5af43d82803e903d91602b57fd5bf360881b60288201526037816000f09150506001600160a01b03811661094d5760405162461bcd60e51b81526004016104179061151f565b919050565b6000808360000151846040015185602001516040516020016109769392919061156c565b6040516020818303038152906040528051906020012090506000817f00000000000000000000000000000000000000000000000000000000000000006201fa40867f00000000000000000000000000000000000000000000000000000000000000003060006040516020016109f197969594939291906115c0565b60408051601f19818403018152908290528051602090910120634f8812e360e11b825291506001600160a01b037f00000000000000000000000000000000000000000000000000000000000000001690639f1025c690610a55908490600401611101565b60206040518083038186803b158015610a6d57600080fd5b505afa158015610a81573d6000803e3d6000fd5b505050506040513d601f19601f82011682018060405250810190610aa59190611646565b63ffffffff1615610ab857809250610b94565b845160208601516040808801519051631212e4f160e21b81526001600160a01b037f0000000000000000000000000000000000000000000000000000000000000000169363484b93c493610b3f93919290917f0000000000000000000000000000000000000000000000000000000000000000916201fa4091906000908d9060040161167c565b602060405180830381600087803b158015610b5957600080fd5b505af1158015610b6d573d6000803e3d6000fd5b505050506040513d601f19601f82011682018060405250810190610b9191906116f6565b92505b505092915050565b60006001600160a01b0382165b92915050565b610bb881610b9c565b82525050565b60208101610ba98284610baf565b6000610ba96001600160a01b038316610be3565b90565b6001600160a01b031690565b6000610ba982610bcc565b6000610ba982610bef565b610bb881610bfa565b6000610c1a8383610c05565b505060200190565b6000610c2c825190565b80845260209384019383018060005b83811015610c60578151610c4f8882610c0e565b975060208301925050600101610c3b565b509495945050505050565b60208082528101610c7c8184610c22565b9392505050565b63ffffffff8116610bb8565b60208101610ba98284610c83565b634e487b7160e01b600052604160045260246000fd5b601f19601f830116810181811067ffffffffffffffff82111715610cd957610cd9610c9d565b6040525050565b6000610ceb60405190565b905061094d8282610cb3565b600067ffffffffffffffff821115610d1157610d11610c9d565b601f19601f83011660200192915050565b82818337506000910152565b6000610d41610d3c84610cf7565b610ce0565b905082815260208101848484011115610d5c57610d5c600080fd5b610d67848285610d22565b509392505050565b600082601f830112610d8357610d83600080fd5b8135610d93848260208601610d2e565b949350505050565b610da481610b9c565b8114610daf57600080fd5b50565b8035610ba981610d9b565b80610da4565b8035610ba981610dbd565b600067ffffffffffffffff821115610de857610de8610c9d565b5060209081020190565b63ffffffff8116610da4565b8035610ba981610df2565b600060608284031215610e1e57610e1e600080fd5b610e286060610ce0565b90506000610e368484610dc3565b825250602082013567ffffffffffffffff811115610e5657610e56600080fd5b610e6284828501610d6f565b6020830152506040610e7684828501610dfe565b60408301525092915050565b6000610e90610d3c84610dce565b83815290506020808201908402830185811115610eaf57610eaf600080fd5b835b81811015610ef057803567ffffffffffffffff811115610ed357610ed3600080fd5b808601610ee08982610e09565b8552505060209283019201610eb1565b5050509392505050565b600082601f830112610f0e57610f0e600080fd5b8135610d93848260208601610e82565b61ffff8116610da4565b8035610ba981610f1e565b6000610f41610d3c84610dce565b83815290506020808201908402830185811115610f6057610f60600080fd5b835b81811015610ef05780610f758882610f28565b84525060209283019201610f62565b600082601f830112610f9857610f98600080fd5b8135610d93848260208601610f33565b60008060008060008060008060006101208a8c031215610fca57610fca600080fd5b893567ffffffffffffffff811115610fe457610fe4600080fd5b610ff08c828d01610d6f565b99505060208a013567ffffffffffffffff81111561101057611010600080fd5b61101c8c828d01610d6f565b985050604061102d8c828d01610db2565b975050606061103e8c828d01610dc3565b965050608061104f8c828d01610dc3565b95505060a06110608c828d01610dc3565b94505060c06110718c828d01610dc3565b93505060e08a013567ffffffffffffffff81111561109157611091600080fd5b61109d8c828d01610efa565b9250506101008a013567ffffffffffffffff8111156110be576110be600080fd5b6110ca8c828d01610f84565b9150509295985092959850929598565b6000602082840312156110ef576110ef600080fd5b6000610d938484610db2565b80610bb8565b60208101610ba982846110fb565b60006020828403121561112457611124600080fd5b6000610d938484610dc3565b60208101610ba98284610c05565b634e487b7160e01b600052603260045260246000fd5b60208082528101610ba981602a81527f43616e6e6f74206f70656e207175657374696f6e20696e2074686520626574746020820152691a5b99c81c195c9a5bd960b21b604082015260600190565b60208082527f5175657374696f6e732061726520696e20696e636f7272656374206f72646572910190815260005b5060200190565b60208082528101610ba9816111a2565b634e487b7160e01b600052601160045260246000fd5b6000600019821415611211576112116111e7565b5060010190565b60a081016112268288610baf565b61123360208301876110fb565b6112406040830186610baf565b61124d60608301856110fb565b61125a6080830184610baf565b9695505050505050565b60008219821115611277576112776111e7565b500190565b61ffff8116610bb8565b60005b838110156112a1578181015183820152602001611289565b838111156112b0576000848401525b50505050565b60006112c0825190565b8084526020840193506112d7818560208601611286565b601f01601f19169290920192915050565b805160009060a08401906112fc858261127c565b50602083015161130f602086018261127c565b5060408301516113226040860182610baf565b506060830151848203606086015261133a82826112b6565b9150506080830151848203608086015261135482826112b6565b95945050505050565b6000610c1a83836110fb565b6000611373825190565b80845260209384019383018060005b83811015610c60578151611396888261135d565b975060208301925050600101611382565b6000610c1a838361127c565b60006113bd825190565b80845260209384019383018060005b83811015610c605781516113e088826113a7565b9750602083019250506001016113cc565b6101008082528101611403818b6112e8565b9050611412602083018a610baf565b61141f6040830189610baf565b61142c60608301886110fb565b61143960808301876110fb565b61144660a08301866110fb565b81810360c08301526114588185611369565b905081810360e083015261146c81846113b3565b9a9950505050505050505050565b6000611484825190565b602083018060005b83811015610c605781516114a0888261135d565b97506020830192505060010161148c565b6000610c7c828461147a565b600e81526000602082016d139bdd08185d5d1a1bdc9a5e995960921b815291506111d0565b60208082528101610ba9816114bd565b6016815260006020820175115490cc4c4d8dce8818dc99585d194819985a5b195960521b815291506111d0565b60208082528101610ba9816114f2565b6000610ba98260e01b90565b610bb863ffffffff821661152f565b6000611554825190565b611562818560208601611286565b9290920192915050565b600061157882866110fb565b602082019150611588828561153b565b600482019150611354828461154a565b6000610ba98260601b90565b6000610ba982611598565b610bb86115bb82610b9c565b6115a4565b60006115cc828a6110fb565b6020820191506115dc82896115af565b6014820191506115ec828861153b565b6004820191506115fc82876110fb565b60208201915061160c82866115af565b60148201915061161c82856115af565b60148201915061162c82846110fb565b50602001979650505050505050565b8051610ba981610df2565b60006020828403121561165b5761165b600080fd5b6000610d93848461163b565b6000610ba9610be08381565b610bb881611667565b60e0810161168a828a6110fb565b818103602083015261169c81896112b6565b90506116ab6040830188610baf565b6116b86060830187610c83565b6116c56080830186610c83565b6116d260a0830185611673565b6116df60c08301846110fb565b98975050505050505050565b8051610ba981610dbd565b60006020828403121561170b5761170b600080fd5b6000610d9384846116eb56fea2646970667358221220734f67f895a5a4859f460d2129d92600909340012ef3f88b797e0d5756e9bc1564736f6c63430008090033",
  "linkReferences": {},
  "deployedLinkReferences": {}
}