{
  "_format": "hh-sol-artifact-1",
  "contractName": "Market",
  "sourceName": "contracts/Market.sol",
  "abi": [
    {
      "inputs": [],
      "stateMutability": "nonpayable",
      "type": "constructor"
    },
    {
      "anonymous": false,
      "inputs": [
        {
          "indexed": true,
          "internalType": "address",
          "name": "owner",
          "type": "address"
        },
        {
          "indexed": true,
          "internalType": "address",
          "name": "approved",
          "type": "address"
        },
        {
          "indexed": true,
          "internalType": "uint256",
          "name": "tokenId",
          "type": "uint256"
        }
      ],
      "name": "Approval",
      "type": "event"
    },
    {
      "anonymous": false,
      "inputs": [
        {
          "indexed": true,
          "internalType": "address",
          "name": "owner",
          "type": "address"
        },
        {
          "indexed": true,
          "internalType": "address",
          "name": "operator",
          "type": "address"
        },
        {
          "indexed": false,
          "internalType": "bool",
          "name": "approved",
          "type": "bool"
        }
      ],
      "name": "ApprovalForAll",
      "type": "event"
    },
    {
      "anonymous": false,
      "inputs": [
        {
          "indexed": true,
          "internalType": "address",
          "name": "_provider",
          "type": "address"
        }
      ],
      "name": "Attribution",
      "type": "event"
    },
    {
      "anonymous": false,
      "inputs": [
        {
          "indexed": true,
          "internalType": "uint256",
          "name": "_tokenID",
          "type": "uint256"
        },
        {
          "indexed": false,
          "internalType": "uint256",
          "name": "_reward",
          "type": "uint256"
        }
      ],
      "name": "BetReward",
      "type": "event"
    },
    {
      "anonymous": false,
      "inputs": [
        {
          "indexed": true,
          "internalType": "address",
          "name": "_funder",
          "type": "address"
        },
        {
          "indexed": false,
          "internalType": "uint256",
          "name": "_amount",
          "type": "uint256"
        },
        {
          "indexed": false,
          "internalType": "string",
          "name": "_message",
          "type": "string"
        }
      ],
      "name": "FundingReceived",
      "type": "event"
    },
    {
      "anonymous": false,
      "inputs": [
        {
          "indexed": false,
          "internalType": "address",
          "name": "_manager",
          "type": "address"
        },
        {
          "indexed": false,
          "internalType": "uint256",
          "name": "_managementReward",
          "type": "uint256"
        }
      ],
      "name": "ManagementReward",
      "type": "event"
    },
    {
      "anonymous": false,
      "inputs": [
        {
          "indexed": true,
          "internalType": "address",
          "name": "_player",
          "type": "address"
        },
        {
          "indexed": true,
          "internalType": "uint256",
          "name": "tokenID",
          "type": "uint256"
        },
        {
          "indexed": true,
          "internalType": "bytes32",
          "name": "_tokenHash",
          "type": "bytes32"
        },
        {
          "indexed": false,
          "internalType": "bytes32[]",
          "name": "_predictions",
          "type": "bytes32[]"
        }
      ],
      "name": "PlaceBet",
      "type": "event"
    },
    {
      "anonymous": false,
      "inputs": [
        {
          "indexed": false,
          "internalType": "uint16[]",
          "name": "_prizes",
          "type": "uint16[]"
        }
      ],
      "name": "Prizes",
      "type": "event"
    },
    {
      "anonymous": false,
      "inputs": [
        {
          "indexed": false,
          "internalType": "bytes32[]",
          "name": "_questionIDs",
          "type": "bytes32[]"
        }
      ],
      "name": "QuestionsRegistered",
      "type": "event"
    },
    {
      "anonymous": false,
      "inputs": [
        {
          "indexed": true,
          "internalType": "uint256",
          "name": "_tokenID",
          "type": "uint256"
        },
        {
          "indexed": false,
          "internalType": "uint256",
          "name": "_points",
          "type": "uint256"
        },
        {
          "indexed": false,
          "internalType": "uint256",
          "name": "_index",
          "type": "uint256"
        }
      ],
      "name": "RankingUpdated",
      "type": "event"
    },
    {
      "anonymous": false,
      "inputs": [
        {
          "indexed": true,
          "internalType": "address",
          "name": "from",
          "type": "address"
        },
        {
          "indexed": true,
          "internalType": "address",
          "name": "to",
          "type": "address"
        },
        {
          "indexed": true,
          "internalType": "uint256",
          "name": "tokenId",
          "type": "uint256"
        }
      ],
      "name": "Transfer",
      "type": "event"
    },
    {
      "inputs": [],
      "name": "DIVISOR",
      "outputs": [
        {
          "internalType": "uint256",
          "name": "",
          "type": "uint256"
        }
      ],
      "stateMutability": "view",
      "type": "function"
    },
    {
      "inputs": [
        {
          "internalType": "address",
          "name": "to",
          "type": "address"
        },
        {
          "internalType": "uint256",
          "name": "tokenId",
          "type": "uint256"
        }
      ],
      "name": "approve",
      "outputs": [],
      "stateMutability": "nonpayable",
      "type": "function"
    },
    {
      "inputs": [
        {
          "internalType": "address",
          "name": "",
          "type": "address"
        }
      ],
      "name": "attributionBalance",
      "outputs": [
        {
          "internalType": "uint256",
          "name": "",
          "type": "uint256"
        }
      ],
      "stateMutability": "view",
      "type": "function"
    },
    {
      "inputs": [
        {
          "internalType": "address",
          "name": "owner",
          "type": "address"
        }
      ],
      "name": "balanceOf",
      "outputs": [
        {
          "internalType": "uint256",
          "name": "",
          "type": "uint256"
        }
      ],
      "stateMutability": "view",
      "type": "function"
    },
    {
      "inputs": [],
      "name": "betNFTDescriptor",
      "outputs": [
        {
          "internalType": "address",
          "name": "",
          "type": "address"
        }
      ],
      "stateMutability": "view",
      "type": "function"
    },
    {
      "inputs": [
        {
          "internalType": "bytes32",
          "name": "",
          "type": "bytes32"
        }
      ],
      "name": "bets",
      "outputs": [
        {
          "internalType": "uint256",
          "name": "count",
          "type": "uint256"
        }
      ],
      "stateMutability": "view",
      "type": "function"
    },
    {
      "inputs": [
        {
          "internalType": "uint256",
          "name": "_rankIndex",
          "type": "uint256"
        },
        {
          "internalType": "uint256",
          "name": "_firstSharedIndex",
          "type": "uint256"
        },
        {
          "internalType": "uint256",
          "name": "_lastSharedIndex",
          "type": "uint256"
        }
      ],
      "name": "claimRewards",
      "outputs": [],
      "stateMutability": "nonpayable",
      "type": "function"
    },
    {
      "inputs": [],
      "name": "closingTime",
      "outputs": [
        {
          "internalType": "uint256",
          "name": "",
          "type": "uint256"
        }
      ],
      "stateMutability": "view",
      "type": "function"
    },
    {
      "inputs": [],
      "name": "distributeRemainingPrizes",
      "outputs": [],
      "stateMutability": "nonpayable",
      "type": "function"
    },
    {
      "inputs": [
        {
          "internalType": "string",
          "name": "_message",
          "type": "string"
        }
      ],
      "name": "fundMarket",
      "outputs": [],
      "stateMutability": "payable",
      "type": "function"
    },
    {
      "inputs": [
        {
          "internalType": "uint256",
          "name": "tokenId",
          "type": "uint256"
        }
      ],
      "name": "getApproved",
      "outputs": [
        {
          "internalType": "address",
          "name": "",
          "type": "address"
        }
      ],
      "stateMutability": "view",
      "type": "function"
    },
    {
      "inputs": [
        {
          "internalType": "uint256",
          "name": "_tokenID",
          "type": "uint256"
        }
      ],
      "name": "getPredictions",
      "outputs": [
        {
          "internalType": "bytes32[]",
          "name": "",
          "type": "bytes32[]"
        }
      ],
      "stateMutability": "view",
      "type": "function"
    },
    {
      "inputs": [],
      "name": "getPrizes",
      "outputs": [
        {
          "internalType": "uint256[]",
          "name": "",
          "type": "uint256[]"
        }
      ],
      "stateMutability": "view",
      "type": "function"
    },
    {
      "inputs": [
        {
          "internalType": "uint256",
          "name": "_tokenID",
          "type": "uint256"
        }
      ],
      "name": "getScore",
      "outputs": [
        {
          "internalType": "uint256",
          "name": "totalPoints",
          "type": "uint256"
        }
      ],
      "stateMutability": "view",
      "type": "function"
    },
    {
      "inputs": [
        {
          "components": [
            {
              "internalType": "uint16",
              "name": "fee",
              "type": "uint16"
            },
            {
              "internalType": "uint16",
              "name": "royaltyFee",
              "type": "uint16"
            },
            {
              "internalType": "address payable",
              "name": "manager",
              "type": "address"
            },
            {
              "internalType": "string",
              "name": "marketName",
              "type": "string"
            },
            {
              "internalType": "string",
              "name": "marketSymbol",
              "type": "string"
            }
          ],
          "internalType": "struct Market.MarketInfo",
          "name": "_marketInfo",
          "type": "tuple"
        },
        {
          "internalType": "address",
          "name": "_nftDescriptor",
          "type": "address"
        },
        {
          "internalType": "address",
          "name": "_realityETH",
          "type": "address"
        },
        {
          "internalType": "uint256",
          "name": "_closingTime",
          "type": "uint256"
        },
        {
          "internalType": "uint256",
          "name": "_price",
          "type": "uint256"
        },
        {
          "internalType": "uint256",
          "name": "_submissionTimeout",
          "type": "uint256"
        },
        {
          "internalType": "bytes32[]",
          "name": "_questionIDs",
          "type": "bytes32[]"
        },
        {
          "internalType": "uint16[]",
          "name": "_prizeWeights",
          "type": "uint16[]"
        }
      ],
      "name": "initialize",
      "outputs": [],
      "stateMutability": "nonpayable",
      "type": "function"
    },
    {
      "inputs": [],
      "name": "initialized",
      "outputs": [
        {
          "internalType": "bool",
          "name": "",
          "type": "bool"
        }
      ],
      "stateMutability": "view",
      "type": "function"
    },
    {
      "inputs": [
        {
          "internalType": "address",
          "name": "owner",
          "type": "address"
        },
        {
          "internalType": "address",
          "name": "operator",
          "type": "address"
        }
      ],
      "name": "isApprovedForAll",
      "outputs": [
        {
          "internalType": "bool",
          "name": "",
          "type": "bool"
        }
      ],
      "stateMutability": "view",
      "type": "function"
    },
    {
      "inputs": [
        {
          "internalType": "uint256",
          "name": "",
          "type": "uint256"
        }
      ],
      "name": "isRanked",
      "outputs": [
        {
          "internalType": "bool",
          "name": "",
          "type": "bool"
        }
      ],
      "stateMutability": "view",
      "type": "function"
    },
    {
      "inputs": [],
      "name": "managementReward",
      "outputs": [
        {
          "internalType": "uint256",
          "name": "",
          "type": "uint256"
        }
      ],
      "stateMutability": "view",
      "type": "function"
    },
    {
      "inputs": [],
      "name": "marketInfo",
      "outputs": [
        {
          "internalType": "uint16",
          "name": "fee",
          "type": "uint16"
        },
        {
          "internalType": "uint16",
          "name": "royaltyFee",
          "type": "uint16"
        },
        {
          "internalType": "address payable",
          "name": "manager",
          "type": "address"
        },
        {
          "internalType": "string",
          "name": "marketName",
          "type": "string"
        },
        {
          "internalType": "string",
          "name": "marketSymbol",
          "type": "string"
        }
      ],
      "stateMutability": "view",
      "type": "function"
    },
    {
      "inputs": [],
      "name": "name",
      "outputs": [
        {
          "internalType": "string",
          "name": "",
          "type": "string"
        }
      ],
      "stateMutability": "view",
      "type": "function"
    },
    {
      "inputs": [],
      "name": "nextTokenID",
      "outputs": [
        {
          "internalType": "uint256",
          "name": "",
          "type": "uint256"
        }
      ],
      "stateMutability": "view",
      "type": "function"
    },
    {
      "inputs": [],
      "name": "numberOfQuestions",
      "outputs": [
        {
          "internalType": "uint256",
          "name": "",
          "type": "uint256"
        }
      ],
      "stateMutability": "view",
      "type": "function"
    },
    {
      "inputs": [
        {
          "internalType": "uint256",
          "name": "tokenId",
          "type": "uint256"
        }
      ],
      "name": "ownerOf",
      "outputs": [
        {
          "internalType": "address",
          "name": "",
          "type": "address"
        }
      ],
      "stateMutability": "view",
      "type": "function"
    },
    {
      "inputs": [
        {
          "internalType": "address",
          "name": "_attribution",
          "type": "address"
        },
        {
          "internalType": "bytes32[]",
          "name": "_results",
          "type": "bytes32[]"
        }
      ],
      "name": "placeBet",
      "outputs": [
        {
          "internalType": "uint256",
          "name": "",
          "type": "uint256"
        }
      ],
      "stateMutability": "payable",
      "type": "function"
    },
    {
      "inputs": [],
      "name": "price",
      "outputs": [
        {
          "internalType": "uint256",
          "name": "",
          "type": "uint256"
        }
      ],
      "stateMutability": "view",
      "type": "function"
    },
    {
      "inputs": [
        {
          "internalType": "uint256",
          "name": "",
          "type": "uint256"
        }
      ],
      "name": "prizeWeights",
      "outputs": [
        {
          "internalType": "uint16",
          "name": "",
          "type": "uint16"
        }
      ],
      "stateMutability": "view",
      "type": "function"
    },
    {
      "inputs": [
        {
          "internalType": "uint256",
          "name": "",
          "type": "uint256"
        }
      ],
      "name": "questionIDs",
      "outputs": [
        {
          "internalType": "bytes32",
          "name": "",
          "type": "bytes32"
        }
      ],
      "stateMutability": "view",
      "type": "function"
    },
    {
      "inputs": [],
      "name": "questionsHash",
      "outputs": [
        {
          "internalType": "bytes32",
          "name": "",
          "type": "bytes32"
        }
      ],
      "stateMutability": "view",
      "type": "function"
    },
    {
      "inputs": [
        {
          "internalType": "uint256",
          "name": "",
          "type": "uint256"
        }
      ],
      "name": "ranking",
      "outputs": [
        {
          "internalType": "uint256",
          "name": "tokenID",
          "type": "uint256"
        },
        {
          "internalType": "uint248",
          "name": "points",
          "type": "uint248"
        },
        {
          "internalType": "bool",
          "name": "claimed",
          "type": "bool"
        }
      ],
      "stateMutability": "view",
      "type": "function"
    },
    {
      "inputs": [],
      "name": "realitio",
      "outputs": [
        {
          "internalType": "contract RealityETH_v3_0",
          "name": "",
          "type": "address"
        }
      ],
      "stateMutability": "view",
      "type": "function"
    },
    {
      "inputs": [],
      "name": "registerAvailabilityOfResults",
      "outputs": [],
      "stateMutability": "nonpayable",
      "type": "function"
    },
    {
      "inputs": [
        {
          "internalType": "uint256",
          "name": "_tokenID",
          "type": "uint256"
        },
        {
          "internalType": "uint256",
          "name": "_rankIndex",
          "type": "uint256"
        },
        {
          "internalType": "uint256",
          "name": "_duplicates",
          "type": "uint256"
        }
      ],
      "name": "registerPoints",
      "outputs": [],
      "stateMutability": "nonpayable",
      "type": "function"
    },
    {
      "inputs": [
        {
          "internalType": "uint256",
          "name": "_tokenID",
          "type": "uint256"
        }
      ],
      "name": "reimbursePlayer",
      "outputs": [],
      "stateMutability": "nonpayable",
      "type": "function"
    },
    {
      "inputs": [],
      "name": "resultSubmissionPeriodStart",
      "outputs": [
        {
          "internalType": "uint256",
          "name": "",
          "type": "uint256"
        }
      ],
      "stateMutability": "view",
      "type": "function"
    },
    {
      "inputs": [
        {
          "internalType": "uint256",
          "name": "",
          "type": "uint256"
        },
        {
          "internalType": "uint256",
          "name": "_salePrice",
          "type": "uint256"
        }
      ],
      "name": "royaltyInfo",
      "outputs": [
        {
          "internalType": "address",
          "name": "receiver",
          "type": "address"
        },
        {
          "internalType": "uint256",
          "name": "royaltyAmount",
          "type": "uint256"
        }
      ],
      "stateMutability": "view",
      "type": "function"
    },
    {
      "inputs": [
        {
          "internalType": "address",
          "name": "from",
          "type": "address"
        },
        {
          "internalType": "address",
          "name": "to",
          "type": "address"
        },
        {
          "internalType": "uint256",
          "name": "tokenId",
          "type": "uint256"
        }
      ],
      "name": "safeTransferFrom",
      "outputs": [],
      "stateMutability": "nonpayable",
      "type": "function"
    },
    {
      "inputs": [
        {
          "internalType": "address",
          "name": "from",
          "type": "address"
        },
        {
          "internalType": "address",
          "name": "to",
          "type": "address"
        },
        {
          "internalType": "uint256",
          "name": "tokenId",
          "type": "uint256"
        },
        {
          "internalType": "bytes",
          "name": "_data",
          "type": "bytes"
        }
      ],
      "name": "safeTransferFrom",
      "outputs": [],
      "stateMutability": "nonpayable",
      "type": "function"
    },
    {
      "inputs": [
        {
          "internalType": "address",
          "name": "operator",
          "type": "address"
        },
        {
          "internalType": "bool",
          "name": "approved",
          "type": "bool"
        }
      ],
      "name": "setApprovalForAll",
      "outputs": [],
      "stateMutability": "nonpayable",
      "type": "function"
    },
    {
      "inputs": [],
      "name": "submissionTimeout",
      "outputs": [
        {
          "internalType": "uint256",
          "name": "",
          "type": "uint256"
        }
      ],
      "stateMutability": "view",
      "type": "function"
    },
    {
      "inputs": [
        {
          "internalType": "bytes4",
          "name": "interfaceId",
          "type": "bytes4"
        }
      ],
      "name": "supportsInterface",
      "outputs": [
        {
          "internalType": "bool",
          "name": "",
          "type": "bool"
        }
      ],
      "stateMutability": "view",
      "type": "function"
    },
    {
      "inputs": [],
      "name": "symbol",
      "outputs": [
        {
          "internalType": "string",
          "name": "",
          "type": "string"
        }
      ],
      "stateMutability": "view",
      "type": "function"
    },
    {
      "inputs": [
        {
          "internalType": "uint256",
          "name": "",
          "type": "uint256"
        }
      ],
      "name": "tokenIDtoTokenHash",
      "outputs": [
        {
          "internalType": "bytes32",
          "name": "",
          "type": "bytes32"
        }
      ],
      "stateMutability": "view",
      "type": "function"
    },
    {
      "inputs": [
        {
          "internalType": "uint256",
          "name": "tokenId",
          "type": "uint256"
        }
      ],
      "name": "tokenURI",
      "outputs": [
        {
          "internalType": "string",
          "name": "",
          "type": "string"
        }
      ],
      "stateMutability": "view",
      "type": "function"
    },
    {
      "inputs": [],
      "name": "totalAttributions",
      "outputs": [
        {
          "internalType": "uint256",
          "name": "",
          "type": "uint256"
        }
      ],
      "stateMutability": "view",
      "type": "function"
    },
    {
      "inputs": [],
      "name": "totalPrize",
      "outputs": [
        {
          "internalType": "uint256",
          "name": "",
          "type": "uint256"
        }
      ],
      "stateMutability": "view",
      "type": "function"
    },
    {
      "inputs": [
        {
          "internalType": "address",
          "name": "from",
          "type": "address"
        },
        {
          "internalType": "address",
          "name": "to",
          "type": "address"
        },
        {
          "internalType": "uint256",
          "name": "tokenId",
          "type": "uint256"
        }
      ],
      "name": "transferFrom",
      "outputs": [],
      "stateMutability": "nonpayable",
      "type": "function"
    }
  ],
  "bytecode": "0x60806040523480156200001157600080fd5b50604080516020808201808452600080845284519283019094528382528251929391926200004192919062000060565b5080516200005790600190602084019062000060565b5050506200014d565b8280546200006e906200011c565b90600052602060002090601f016020900481019282620000925760008555620000dd565b82601f10620000ad57805160ff1916838001178555620000dd565b82800160010185558215620000dd579182015b82811115620000dd578251825591602001919060010190620000c0565b50620000eb929150620000ef565b5090565b5b80821115620000eb5760008155600101620000f0565b634e487b7160e01b600052602260045260246000fd5b6002810460018216806200013157607f821691505b6020821081141562000147576200014762000106565b50919050565b614559806200015d6000396000f3fe6080604052600436106102885760003560e01c8063a16eff391161015a578063c540f435116100c1578063e6aad6a01161007a578063e6aad6a0146107d8578063e985e9c5146107eb578063ec000bb51461080b578063f101e4811461082d578063f1813d5114610843578063f61d20511461087057600080fd5b8063c540f43514610715578063c87b56dd1461072b578063c902c3ae1461074b578063d0f9d46b14610778578063d1d507ba14610798578063e505abe1146107b857600080fd5b8063b4e32ed611610113578063b4e32ed614610650578063b88d4fde14610670578063ba429f3814610690578063bc8802a2146106a5578063c4488992146106d2578063c4bd8519146106ff57600080fd5b8063a16eff3914610578578063a22cb4651461058d578063a6ffc479146105ad578063b065a46b146105c3578063b087690c1461061b578063b4594c361461063b57600080fd5b80633f43bc09116101fe5780636352211e116101b75780636352211e146104c757806370a08231146104e757806382b1ad501461050757806395d89b411461051d5780639ed5032814610532578063a035b1fe1461056257600080fd5b80633f43bc091461042557806342842e0e1461045257806348fe67f8146104725780634b6753bc146104885780635f96a4eb1461049e5780635fed47cd146104b457600080fd5b80630e1af57b116102505780630e1af57b1461035a578063158ef93e1461038757806323b872dd146103a15780632a55205a146103c15780633410fe6e146103ef57806337b5b4071461040557600080fd5b806301ffc9a71461028d578063031bee00146102c357806306fdde03146102e9578063081812fc1461030b578063095ea7b314610338575b600080fd5b34801561029957600080fd5b506102ad6102a8366004612bb5565b61089d565b6040516102ba9190612be0565b60405180910390f35b3480156102cf57600080fd5b506102d86108c8565b6040516102ba959493929190612c72565b3480156102f557600080fd5b506102fe610a0f565b6040516102ba9190612ccb565b34801561031757600080fd5b5061032b610326366004612ced565b610aa4565b6040516102ba9190612d0e565b34801561034457600080fd5b50610358610353366004612d30565b610af0565b005b34801561036657600080fd5b5061037a610375366004612ced565b610b76565b6040516102ba9190612d73565b34801561039357600080fd5b50600c546102ad9060ff1681565b3480156103ad57600080fd5b506103586103bc366004612d81565b610d1f565b3480156103cd57600080fd5b506103e16103dc366004612dd1565b610d50565b6040516102ba929190612df3565b3480156103fb57600080fd5b5061037a61271081565b34801561041157600080fd5b50610358610420366004612e0e565b610e0d565b34801561043157600080fd5b50610445610440366004612ced565b61130c565b6040516102ba9190612e43565b34801561045e57600080fd5b5061035861046d366004612d81565b611344565b34801561047e57600080fd5b5061037a600d5481565b34801561049457600080fd5b5061037a600f5481565b3480156104aa57600080fd5b5061037a60135481565b6103586104c2366004612ea2565b61135f565b3480156104d357600080fd5b5061032b6104e2366004612ced565b6113c8565b3480156104f357600080fd5b5061037a610502366004612ee9565b6113fd565b34801561051357600080fd5b5061037a60115481565b34801561052957600080fd5b506102fe611441565b34801561053e57600080fd5b506102ad61054d366004612ced565b601a6020526000908152604090205460ff1681565b34801561056e57600080fd5b5061037a600e5481565b34801561058457600080fd5b50610358611453565b34801561059957600080fd5b506103586105a8366004612f1d565b611678565b3480156105b957600080fd5b5061037a60125481565b3480156105cf57600080fd5b5061060c6105de366004612ced565b601860205260009081526040902080546001909101546001600160f81b03811690600160f81b900460ff1683565b6040516102ba93929190612f5f565b34801561062757600080fd5b50610358610636366004612e0e565b611687565b34801561064757600080fd5b5060155461037a565b34801561065c57600080fd5b5060095461032b906001600160a01b031681565b34801561067c57600080fd5b5061035861068b366004613080565b6119a0565b34801561069c57600080fd5b506103586119d8565b3480156106b157600080fd5b50600a546106c5906001600160a01b031681565b6040516102ba9190613140565b3480156106de57600080fd5b5061037a6106ed366004612ced565b60196020526000908152604090205481565b34801561070b57600080fd5b5061037a60105481565b34801561072157600080fd5b5061037a60145481565b34801561073757600080fd5b506102fe610746366004612ced565b611c4c565b34801561075757600080fd5b5061037a610766366004612ced565b60176020526000908152604090205481565b34801561078457600080fd5b50610358610793366004613334565b611cf7565b3480156107a457600080fd5b5061037a6107b3366004612ced565b611f7e565b3480156107c457600080fd5b506103586107d3366004612ced565b611f9f565b61037a6107e636600461347e565b61209d565b3480156107f757600080fd5b506102ad6108063660046134d9565b612280565b34801561081757600080fd5b506108206122ae565b6040516102ba9190613569565b34801561083957600080fd5b5061037a600b5481565b34801561084f57600080fd5b5061086361085e366004612ced565b612377565b6040516102ba91906135b8565b34801561087c57600080fd5b5061037a61088b366004612ee9565b601b6020526000908152604090205481565b60006001600160e01b0319821663152a902d60e11b14806108c257506108c28261240b565b92915050565b600680546007805461ffff808416946201000085049091169364010000000090046001600160a01b03169290916108fe906135df565b80601f016020809104026020016040519081016040528092919081815260200182805461092a906135df565b80156109775780601f1061094c57610100808354040283529160200191610977565b820191906000526020600020905b81548152906001019060200180831161095a57829003601f168201915b50505050509080600201805461098c906135df565b80601f01602080910402602001604051908101604052809291908181526020018280546109b8906135df565b8015610a055780601f106109da57610100808354040283529160200191610a05565b820191906000526020600020905b8154815290600101906020018083116109e857829003601f168201915b5050505050905085565b606060066001018054610a21906135df565b80601f0160208091040260200160405190810160405280929190818152602001828054610a4d906135df565b8015610a9a5780601f10610a6f57610100808354040283529160200191610a9a565b820191906000526020600020905b815481529060010190602001808311610a7d57829003601f168201915b5050505050905090565b6000610aaf8261245b565b610ad45760405162461bcd60e51b8152600401610acb90613652565b60405180910390fd5b506000908152600460205260409020546001600160a01b031690565b6000610afb826113c8565b9050806001600160a01b0316836001600160a01b03161415610b2f5760405162461bcd60e51b8152600401610acb906136a0565b336001600160a01b0382161480610b4b5750610b4b8133612280565b610b675760405162461bcd60e51b8152600401610acb9061370a565b610b718383612478565b505050565b6000600d5460001415610b9b5760405162461bcd60e51b8152600401610acb90613749565b610ba48261245b565b610bc05760405162461bcd60e51b8152600401610acb90613784565b60008281526019602090815260408083205483526017825280832060010180548251818502810185019093528083529192909190830182828015610c2357602002820191906000526020600020905b815481526020019060010190808311610c0f575b5050505050905060005b601554811015610d1857600a54601580546001600160a01b039092169163ab5a4e35919084908110610c6157610c61613794565b90600052602060002001546040518263ffffffff1660e01b8152600401610c889190612d73565b60206040518083038186803b158015610ca057600080fd5b505afa158015610cb4573d6000803e3d6000fd5b505050506040513d601f19601f82011682018060405250810190610cd891906137b5565b828281518110610cea57610cea613794565b60200260200101511415610d0657610d036001846137ec565b92505b80610d1081613804565b915050610c2d565b5050919050565b610d2933826124e6565b610d455760405162461bcd60e51b8152600401610acb9061386d565b610b7183838361256b565b600080600660000160049054906101000a90046001600160a01b03166001600160a01b03166302d05d3f6040518163ffffffff1660e01b815260040160206040518083038186803b158015610da457600080fd5b505afa158015610db8573d6000803e3d6000fd5b505050506040513d601f19601f82011682018060405250810190610ddc9190613888565b60065490925061271090610dfa9062010000900461ffff16856138a9565b610e0491906138de565b90509250929050565b600d54610e2c5760405162461bcd60e51b8152600401610acb90613926565b601054600d54610e3c91906137ec565b4210610e5a5760405162461bcd60e51b8152600401610acb90613963565b610e638361245b565b610e7f5760405162461bcd60e51b8152600401610acb90613784565b6000838152601a602052604090205460ff1615610eae5760405162461bcd60e51b8152600401610acb906139a7565b60008381526019602090815260408083205483526017825280832060010180548251818502810185019093528083529192909190830182828015610f1157602002820191906000526020600020905b815481526020019060010190808311610efd575b50505050509050600080600090505b60155481101561100b57600a54601580546001600160a01b039092169163ab5a4e35919084908110610f5457610f54613794565b90600052602060002001546040518263ffffffff1660e01b8152600401610f7b9190612d73565b60206040518083038186803b158015610f9357600080fd5b505afa158015610fa7573d6000803e3d6000fd5b505050506040513d601f19601f82011682018060405250810190610fcb91906137b5565b838281518110610fdd57610fdd613794565b60200260200101511415610ff957610ff66001836139b7565b91505b8061100381613804565b915050610f20565b506000816001600160f81b0316116110355760405162461bcd60e51b8152600401610acb90613a15565b83158061107057506018600061104c600187613a25565b81526020810191909152604001600020600101546001600160f81b03908116908216105b61108c5760405162461bcd60e51b8152600401610acb90613a68565b6000848152601860205260409020600101546001600160f81b03908116908216111561117e576000848152601860205260409020600101546001600160f81b0316156110f6576000848152601860209081526040808320548352601a9091529020805460ff191690555b6000848152601860209081526040808320888155600190810180546001600160f81b0319166001600160f81b038716179055888452601a90925291829020805460ff191690911790555185907f387d01e96a7dce0e6676dd7a6ea815d3160e37ef13867fc6e9ce5fe9be85f404906111719084908890613a96565b60405180910390a2611305565b6000848152601860205260409020600101546001600160f81b03828116911614156113055760006111af84866137ec565b6000818152601860205260409020600101549091506001600160f81b03908116908316116111ef5760405162461bcd60e51b8152600401610acb90613ad8565b601860006111fe600184613a25565b81526020810191909152604001600020600101546001600160f81b0383811691161461123c5760405162461bcd60e51b8152600401610acb90613ad8565b6000818152601860205260409020600101546001600160f81b031615611280576000818152601860209081526040808320548352601a9091529020805460ff191690555b6000818152601860209081526040808320898155600190810180546001600160f81b0319166001600160f81b038816179055898452601a90925291829020805460ff191690911790555186907f387d01e96a7dce0e6676dd7a6ea815d3160e37ef13867fc6e9ce5fe9be85f404906112fb9085908590613a96565b60405180910390a2505b5050505050565b6016818154811061131c57600080fd5b9060005260206000209060109182820401919006600202915054906101000a900461ffff1681565b610b71838383604051806020016040528060008152506119a0565b600d541561137f5760405162461bcd60e51b8152600401610acb90613b1c565b336001600160a01b03167fc807fd14fab470bd4f9c45995cd7c840c7f3b12d7053c7d38252646bf3229ee73484846040516113bc93929190613b4f565b60405180910390a25050565b6000818152600260205260408120546001600160a01b0316806108c25760405162461bcd60e51b8152600401610acb90613bbf565b60006001600160a01b0382166114255760405162461bcd60e51b8152600401610acb90613c16565b506001600160a01b031660009081526003602052604090205490565b606060066002018054610a21906135df565b600f5442116114745760405162461bcd60e51b8152600401610acb90613c49565b600d54156114945760405162461bcd60e51b8152600401610acb90613b1c565b60005b60155481101561155557600a54601580546001600160a01b039092169163ab5a4e359190849081106114cb576114cb613794565b90600052602060002001546040518263ffffffff1660e01b81526004016114f29190612d73565b60206040518083038186803b15801561150a57600080fd5b505afa15801561151e573d6000803e3d6000fd5b505050506040513d601f19601f8201168201806040525081019061154291906137b5565b508061154d81613804565b915050611497565b5042600d556006544790612710906115719061ffff16836138a9565b61157b91906138de565b601281905561158a9082613a25565b60115560065460125460408051600080825260208201928390529364010000000090046001600160a01b031692916115c29190613c7b565b60006040518083038185875af1925050503d80600081146115ff576040519150601f19603f3d011682016040523d82523d6000602084013e611604565b606091505b50509050806116255760405162461bcd60e51b8152600401610acb90613cae565b6006546012546040517f570bc80fd4b457a1b1d4dff8747348996b11f4102074c486a68c305c03ab44569261166c926401000000009091046001600160a01b031691613cbe565b60405180910390a15050565b61168333838361268d565b5050565b600d546116a65760405162461bcd60e51b8152600401610acb90613cf6565b601054600d546116b691906137ec565b42116116d45760405162461bcd60e51b8152600401610acb90613d3a565b600083815260186020526040902060010154600160f81b900460ff161561170d5760405162461bcd60e51b8152600401610acb90613d70565b60008381526018602052604080822060019081015485845291909220909101546001600160f81b03918216911681146117585760405162461bcd60e51b8152600401610acb90613da8565b6000828152601860205260409020600101546001600160f81b038281169116146117945760405162461bcd60e51b8152600401610acb90613dde565b601860006117a38460016137ec565b81526020810191909152604001600020600101546001600160f81b03908116908216116117e25760405162461bcd60e51b8152600401610acb90613dde565b82158061181d5750601860006117f9600186613a25565b81526020810191909152604001600020600101546001600160f81b03908116908216105b6118395760405162461bcd60e51b8152600401610acb90613da8565b60006118458484613a25565b6118509060016137ec565b90506000845b601654811080156118675750848111155b156118bd576016818154811061187f5761187f613794565b600091825260209091206010820401546118a991600f166002026101000a900461ffff16836137ec565b9150806118b581613804565b915050611856565b5060006118cc836127106138a9565b826011546118da91906138a9565b6118e491906138de565b60008881526018602052604090206001810180546001600160f81b0316600160f81b17905554909150611916906113c8565b6001600160a01b03166108fc829081150290604051600060405180830381858888f1935050505015801561194e573d6000803e3d6000fd5b50600087815260186020526040908190205490517fb56bcf9b81f1074a6e4ee5392142a090346ffa9eccb4b9ce6c2b64373393c0389061198f908490612d73565b60405180910390a250505050505050565b6119aa33836124e6565b6119c65760405162461bcd60e51b8152600401610acb9061386d565b6119d284848484612730565b50505050565b600d546119f75760405162461bcd60e51b8152600401610acb90613cf6565b601054600d54611a0791906137ec565b4211611a255760405162461bcd60e51b8152600401610acb90613d3a565b6000805260186020527f999d26de3473317ead3eeaf34ca78057f1439db67b6953469c3c96ce9caf6bd8546001600160f81b0316611a755760405162461bcd60e51b8152600401610acb90613e0f565b60008060005b601654811015611b5d576000818152601860205260409020600101546001600160f81b0316611b4b5781611aad578091505b600081815260186020526040902060010154600160f81b900460ff1615611ae65760405162461bcd60e51b8152600401610acb90613d70565b600081815260186020526040902060010180546001600160f81b0316600160f81b1790556016805482908110611b1e57611b1e613794565b60009182526020909120601082040154611b4891600f166002026101000a900461ffff16846137ec565b92505b80611b5581613804565b915050611a7b565b5060008211611b7e5760405162461bcd60e51b8152600401610acb90613e46565b6000611b8c826127106138a9565b83601154611b9a91906138a9565b611ba491906138de565b905060005b828110156119d257600081815260186020526040902054611bc9906113c8565b6001600160a01b03166108fc839081150290604051600060405180830381858888f1505050600083815260186020526040908190205490519092507fb56bcf9b81f1074a6e4ee5392142a090346ffa9eccb4b9ce6c2b64373393c0389150611c32908590612d73565b60405180910390a280611c4481613804565b915050611ba9565b6060611c578261245b565b611c735760405162461bcd60e51b8152600401610acb90613ea2565b60095460405163c87b56dd60e01b81526001600160a01b039091169063c87b56dd90611ca3908590600401612d73565b60006040518083038186803b158015611cbb57600080fd5b505afa158015611ccf573d6000803e3d6000fd5b505050506040513d6000823e601f3d908101601f191682016040526108c29190810190613f0a565b600c5460ff1615611d1a5760405162461bcd60e51b8152600401610acb90613f6f565b612710886000015161ffff1610611d435760405162461bcd60e51b8152600401610acb90613fac565b612710886020015161ffff1610611d6c5760405162461bcd60e51b8152600401610acb90613fe6565b8751600680546020808c015160408d01516001600160a01b031664010000000002640100000000600160c01b031961ffff928316620100000263ffffffff199095169290961691909117929092179390931617815560608a015180518b93611dd9926007929101906129de565b5060808201518051611df59160028401916020909101906129de565b5050600980546001600160a01b03808b166001600160a01b031992831617909255600a8054928a169290911691909117905550600f859055600e8490556010839055604051611e4890839060200161402d565b60408051601f1981840301815291905280516020918201206014558251611e759160159190850190612a62565b506000805b8251811015611ec057828181518110611e9557611e95613794565b602002602001015161ffff1682611eac91906137ec565b915080611eb881613804565b915050611e7a565b506127108114611ee25760405162461bcd60e51b8152600401610acb9061405f565b8151611ef5906016906020850190612a9c565b50600c805460ff191660011790556040517f45bb3a3f94901a37acca80add57516aee10ae808cdb84bf416db2aaa94eba3be90611f34906015906140cb565b60405180910390a17f2a88acbd189cb4036081b368b1750a0ad1c9407d4f61bed09d3383ebdeb833a882604051611f6b9190614126565b60405180910390a1505050505050505050565b60158181548110611f8e57600080fd5b600091825260209091200154905081565b600d54611fbe5760405162461bcd60e51b8152600401610acb90613cf6565b601054600d54611fce91906137ec565b4211611fec5760405162461bcd60e51b8152600401610acb90613d3a565b6000805260186020527f999d26de3473317ead3eeaf34ca78057f1439db67b6953469c3c96ce9caf6bd8546001600160f81b03161561203d5760405162461bcd60e51b8152600401610acb90614178565b6000600b5460115461204f91906138de565b9050600061205c836113c8565b905061206783612763565b6040516001600160a01b0382169083156108fc029084906000818181858888f193505050501580156119d2573d6000803e3d6000fd5b6000600e5434146120c05760405162461bcd60e51b8152600401610acb906141af565b60155482146120e15760405162461bcd60e51b8152600401610acb906141e6565b600f5442106121025760405162461bcd60e51b8152600401610acb9061421d565b6001600160a01b0384161561218e576001600160a01b0384166000908152601b6020526040812080546001929061213a9084906137ec565b9250508190555060016013600082825461215491906137ec565b90915550506040516001600160a01b038516907fac77d41eee650966c9a2ee1573e181067be01d999bee19884df83a2392d3d3ed90600090a25b600083836040516020016121a3929190614261565b60408051601f198184030181529181528151602092830120600b54600090815260198452828120829055818152601790935291208054919250906121f1576121ef600182018686612b40565b505b600181600001600082825461220691906137ec565b9250508190555061221933600b546127fe565b81600b54336001600160a01b03167f33877d0ba97f9766c95c7a951f989264217eb0207fce76c0dca350c6b43c310c888860405161225892919061427c565b60405180910390a4600b805490600061227083613804565b91905055925050505b9392505050565b6001600160a01b03918216600090815260056020908152604080832093909416825291909152205460ff1690565b6016546060906000906001600160401b038111156122ce576122ce612f87565b6040519080825280602002602001820160405280156122f7578160200160208202803683370190505b50905060005b601654811015612371576016818154811061231a5761231a613794565b90600052602060002090601091828204019190066002029054906101000a900461ffff1661ffff1682828151811061235457612354613794565b60209081029190910101528061236981613804565b9150506122fd565b50919050565b60606123828261245b565b61239e5760405162461bcd60e51b8152600401610acb90613784565b60008281526019602090815260408083205483526017825291829020600101805483518184028101840190945280845290918301828280156123ff57602002820191906000526020600020905b8154815260200190600101908083116123eb575b50505050509050919050565b60006001600160e01b031982166380ac58cd60e01b148061243c57506001600160e01b03198216635b5e139f60e01b145b806108c257506301ffc9a760e01b6001600160e01b03198316146108c2565b6000908152600260205260409020546001600160a01b0316151590565b600081815260046020526040902080546001600160a01b0319166001600160a01b03841690811790915581906124ad826113c8565b6001600160a01b03167f8c5be1e5ebec7d5bd14f71427d1e84f3dd0314c0f7b2291e5b200ac8c7c3b92560405160405180910390a45050565b60006124f18261245b565b61250d5760405162461bcd60e51b8152600401610acb906142d7565b6000612518836113c8565b9050806001600160a01b0316846001600160a01b031614806125535750836001600160a01b031661254884610aa4565b6001600160a01b0316145b8061256357506125638185612280565b949350505050565b826001600160a01b031661257e826113c8565b6001600160a01b0316146125a45760405162461bcd60e51b8152600401610acb90614329565b6001600160a01b0382166125ca5760405162461bcd60e51b8152600401610acb9061437a565b6125d5600082612478565b6001600160a01b03831660009081526003602052604081208054600192906125fe908490613a25565b90915550506001600160a01b038216600090815260036020526040812080546001929061262c9084906137ec565b909155505060008181526002602052604080822080546001600160a01b0319166001600160a01b0386811691821790925591518493918716917fddf252ad1be2c89b69c2b068fc378daa952ba7f163c4a11628f55a4df523b3ef91a4505050565b816001600160a01b0316836001600160a01b031614156126bf5760405162461bcd60e51b8152600401610acb906143be565b6001600160a01b0383811660008181526005602090815260408083209487168084529490915290819020805460ff1916851515179055517f17307eab39ab6107e8899845ad3d59bd9653f200f220920489ca2b5937696c3190612723908590612be0565b60405180910390a3505050565b61273b84848461256b565b612747848484846128d1565b6119d25760405162461bcd60e51b8152600401610acb9061441d565b600061276e826113c8565b905061277b600083612478565b6001600160a01b03811660009081526003602052604081208054600192906127a4908490613a25565b909155505060008281526002602052604080822080546001600160a01b0319169055518391906001600160a01b038416907fddf252ad1be2c89b69c2b068fc378daa952ba7f163c4a11628f55a4df523b3ef908390a45050565b6001600160a01b0382166128245760405162461bcd60e51b8152600401610acb9061445f565b61282d8161245b565b1561284a5760405162461bcd60e51b8152600401610acb906144a3565b6001600160a01b03821660009081526003602052604081208054600192906128739084906137ec565b909155505060008181526002602052604080822080546001600160a01b0319166001600160a01b03861690811790915590518392907fddf252ad1be2c89b69c2b068fc378daa952ba7f163c4a11628f55a4df523b3ef908290a45050565b60006001600160a01b0384163b156129d357604051630a85bd0160e11b81526001600160a01b0385169063150b7a02906129159033908990889088906004016144b3565b602060405180830381600087803b15801561292f57600080fd5b505af192505050801561295f575060408051601f3d908101601f1916820190925261295c91810190614502565b60015b6129b9573d80801561298d576040519150601f19603f3d011682016040523d82523d6000602084013e612992565b606091505b5080516129b15760405162461bcd60e51b8152600401610acb9061441d565b805181602001fd5b6001600160e01b031916630a85bd0160e11b149050612563565b506001949350505050565b8280546129ea906135df565b90600052602060002090601f016020900481019282612a0c5760008555612a52565b82601f10612a2557805160ff1916838001178555612a52565b82800160010185558215612a52579182015b82811115612a52578251825591602001919060010190612a37565b50612a5e929150612b7b565b5090565b828054828255906000526020600020908101928215612a525791602002820182811115612a52578251825591602001919060010190612a37565b82805482825590600052602060002090600f01601090048101928215612a525791602002820160005b83821115612b0557835183826101000a81548161ffff021916908361ffff1602179055509260200192600201602081600101049283019260010302612ac5565b8015612b335782816101000a81549061ffff0219169055600201602081600101049283019260010302612b05565b5050612a5e929150612b7b565b828054828255906000526020600020908101928215612a52579160200282015b82811115612a52578235825591602001919060010190612b60565b5b80821115612a5e5760008155600101612b7c565b6001600160e01b031981165b8114612ba757600080fd5b50565b80356108c281612b90565b600060208284031215612bca57612bca600080fd5b60006125638484612baa565b8015155b82525050565b602081016108c28284612bd6565b61ffff8116612bda565b60006001600160a01b0382166108c2565b612bda81612bf8565b60005b83811015612c2d578181015183820152602001612c15565b838111156119d25750506000910152565b6000612c48825190565b808452602084019350612c5f818560208601612c12565b601f19601f8201165b9093019392505050565b60a08101612c808288612bee565b612c8d6020830187612bee565b612c9a6040830186612c09565b8181036060830152612cac8185612c3e565b90508181036080830152612cc08184612c3e565b979650505050505050565b602080825281016122798184612c3e565b80612b9c565b80356108c281612cdc565b600060208284031215612d0257612d02600080fd5b60006125638484612ce2565b602081016108c28284612c09565b612b9c81612bf8565b80356108c281612d1c565b60008060408385031215612d4657612d46600080fd5b6000612d528585612d25565b9250506020612d6385828601612ce2565b9150509250929050565b80612bda565b602081016108c28284612d6d565b600080600060608486031215612d9957612d99600080fd5b6000612da58686612d25565b9350506020612db686828701612d25565b9250506040612dc786828701612ce2565b9150509250925092565b60008060408385031215612de757612de7600080fd5b6000612d528585612ce2565b60408101612e018285612c09565b6122796020830184612d6d565b600080600060608486031215612e2657612e26600080fd5b6000612e328686612ce2565b9350506020612db686828701612ce2565b602081016108c28284612bee565b60008083601f840112612e6657612e66600080fd5b5081356001600160401b03811115612e8057612e80600080fd5b602083019150836001820283011115612e9b57612e9b600080fd5b9250929050565b60008060208385031215612eb857612eb8600080fd5b82356001600160401b03811115612ed157612ed1600080fd5b612edd85828601612e51565b92509250509250929050565b600060208284031215612efe57612efe600080fd5b60006125638484612d25565b801515612b9c565b80356108c281612f0a565b60008060408385031215612f3357612f33600080fd5b6000612f3f8585612d25565b9250506020612d6385828601612f12565b6001600160f81b038116612bda565b60608101612f6d8286612d6d565b612f7a6020830185612f50565b6125636040830184612bd6565b634e487b7160e01b600052604160045260246000fd5b601f19601f83011681018181106001600160401b0382111715612fc257612fc2612f87565b6040525050565b6000612fd460405190565b9050612fe08282612f9d565b919050565b60006001600160401b03821115612ffe57612ffe612f87565b601f19601f83011660200192915050565b82818337506000910152565b600061302e61302984612fe5565b612fc9565b90508281526020810184848401111561304957613049600080fd5b61305484828561300f565b509392505050565b600082601f83011261307057613070600080fd5b813561256384826020860161301b565b6000806000806080858703121561309957613099600080fd5b60006130a58787612d25565b94505060206130b687828801612d25565b93505060406130c787828801612ce2565b92505060608501356001600160401b038111156130e6576130e6600080fd5b6130f28782880161305c565b91505092959194509250565b60006108c26001600160a01b038316613115565b90565b6001600160a01b031690565b60006108c2826130fe565b60006108c282613121565b612bda8161312c565b602081016108c28284613137565b61ffff8116612b9c565b80356108c28161314e565b600060a0828403121561317857613178600080fd5b61318260a0612fc9565b905060006131908484613158565b82525060206131a184848301613158565b60208301525060406131b584828501612d25565b60408301525060608201356001600160401b038111156131d7576131d7600080fd5b6131e38482850161305c565b60608301525060808201356001600160401b0381111561320557613205600080fd5b6132118482850161305c565b60808301525092915050565b60006001600160401b0382111561323657613236612f87565b5060209081020190565b600061324e6130298461321d565b8381529050602080820190840283018581111561326d5761326d600080fd5b835b8181101561329157806132828882612ce2565b8452506020928301920161326f565b5050509392505050565b600082601f8301126132af576132af600080fd5b8135612563848260208601613240565b60006132cd6130298461321d565b838152905060208082019084028301858111156132ec576132ec600080fd5b835b8181101561329157806133018882613158565b845250602092830192016132ee565b600082601f83011261332457613324600080fd5b81356125638482602086016132bf565b600080600080600080600080610100898b03121561335457613354600080fd5b88356001600160401b0381111561336d5761336d600080fd5b6133798b828c01613163565b985050602061338a8b828c01612d25565b975050604061339b8b828c01612d25565b96505060606133ac8b828c01612ce2565b95505060806133bd8b828c01612ce2565b94505060a06133ce8b828c01612ce2565b93505060c08901356001600160401b038111156133ed576133ed600080fd5b6133f98b828c0161329b565b92505060e08901356001600160401b0381111561341857613418600080fd5b6134248b828c01613310565b9150509295985092959890939650565b60008083601f84011261344957613449600080fd5b5081356001600160401b0381111561346357613463600080fd5b602083019150836020820283011115612e9b57612e9b600080fd5b60008060006040848603121561349657613496600080fd5b60006134a28686612d25565b93505060208401356001600160401b038111156134c1576134c1600080fd5b6134cd86828701613434565b92509250509250925092565b600080604083850312156134ef576134ef600080fd5b60006134fb8585612d25565b9250506020612d6385828601612d25565b60006135188383612d6d565b505060200190565b600061352a825190565b80845260209384019383018060005b8381101561355e57815161354d888261350c565b975060208301925050600101613539565b509495945050505050565b602080825281016122798184613520565b6000613584825190565b80845260209384019383018060005b8381101561355e5781516135a7888261350c565b975060208301925050600101613593565b60208082528101612279818461357a565b634e487b7160e01b600052602260045260246000fd5b6002810460018216806135f357607f821691505b60208210811415612371576123716135c9565b602c81526000602082017f4552433732313a20617070726f76656420717565727920666f72206e6f6e657881526b34b9ba32b73a103a37b5b2b760a11b602082015291505b5060400190565b602080825281016108c281613606565b602181526000602082017f4552433732313a20617070726f76616c20746f2063757272656e74206f776e658152603960f91b6020820152915061364b565b602080825281016108c281613662565b603881526000602082017f4552433732313a20617070726f76652063616c6c6572206973206e6f74206f7781527f6e6572206e6f7220617070726f76656420666f7220616c6c00000000000000006020820152915061364b565b602080825281016108c2816136b0565b6015815260006020820174526573756c7473206e6f7420617661696c61626c6560581b815291505b5060200190565b602080825281016108c28161371a565b6014815260006020820173151bdad95b88191bd95cc81b9bdd08195e1a5cdd60621b81529150613742565b602080825281016108c281613759565b634e487b7160e01b600052603260045260246000fd5b80516108c281612cdc565b6000602082840312156137ca576137ca600080fd5b600061256384846137aa565b634e487b7160e01b600052601160045260246000fd5b600082198211156137ff576137ff6137d6565b500190565b6000600019821415613818576138186137d6565b5060010190565b603181526000602082017f4552433732313a207472616e736665722063616c6c6572206973206e6f74206f8152701ddb995c881b9bdc88185c1c1c9bdd9959607a1b6020820152915061364b565b602080825281016108c28161381f565b80516108c281612d1c565b60006020828403121561389d5761389d600080fd5b6000612563848461387d565b60008160001904831182151516156138c3576138c36137d6565b500290565b634e487b7160e01b600052601260045260246000fd5b6000826138ed576138ed6138c8565b500490565b601881526000602082017f4e6f7420696e207375626d697373696f6e20706572696f64000000000000000081529150613742565b602080825281016108c2816138f2565b601681526000602082017529bab136b4b9b9b4b7b7103832b934b7b21037bb32b960511b81529150613742565b602080825281016108c281613936565b601881526000602082017f546f6b656e20616c72656164792072656769737465726564000000000000000081529150613742565b602080825281016108c281613973565b60006001600160f81b03821691506001600160f81b0383169250826001600160f81b03038211156137ff576137ff6137d6565b60148152600060208201732cb7ba9030b932903737ba1030903bb4b73732b960611b81529150613742565b602080825281016108c2816139ea565b600082821015613a3757613a376137d6565b500390565b6015815260006020820174092dcecc2d8d2c840e4c2dcd6d2dcce40d2dcc8caf605b1b81529150613742565b602080825281016108c281613a3c565b60006108c26131126001600160f81b03841681565b612bda81613a78565b60408101612e018285613a8d565b601881526000602082017f57726f6e67205f6475706c69636174657320616d6f756e74000000000000000081529150613742565b602080825281016108c281613aa4565b601981526000602082017f526573756c747320616c726561647920617661696c61626c650000000000000081529150613742565b602080825281016108c281613ae8565b8183526000602084019350613b4283858461300f565b601f19601f840116612c68565b60408101613b5d8286612d6d565b8181036020830152613b70818486613b2c565b95945050505050565b602981526000602082017f4552433732313a206f776e657220717565727920666f72206e6f6e657869737481526832b73a103a37b5b2b760b91b6020820152915061364b565b602080825281016108c281613b79565b602a81526000602082017f4552433732313a2062616c616e636520717565727920666f7220746865207a65815269726f206164647265737360b01b6020820152915061364b565b602080825281016108c281613bcf565b600c81526000602082016b42657473206f6e676f696e6760a01b81529150613742565b602080825281016108c281613c26565b6000613c63825190565b613c71818560208601612c12565b9290920192915050565b60006122798284613c59565b601081526000602082016f14d95b9908161110524819985a5b195960821b81529150613742565b602080825281016108c281613c87565b60408101612e018285613137565b6013815260006020820172139bdd081a5b8818db185a5b481c195c9a5bd9606a1b81529150613742565b602080825281016108c281613ccc565b601a81526000602082017f5375626d697373696f6e20706572696f64206e6f74206f76657200000000000081529150613742565b602080825281016108c281613d06565b600f81526000602082016e105b1c9958591e4818db185a5b5959608a1b81529150613742565b602080825281016108c281613d4a565b60118152600060208201700aee4dedcce40e6e8c2e4e840d2dcc8caf607b1b81529150613742565b602080825281016108c281613d80565b600f81526000602082016e0aee4dedcce40cadcc840d2dcc8caf608b1b81529150613742565b602080825281016108c281613db8565b600a8152600060208201694e6f2077696e6e65727360b01b81529150613742565b602080825281016108c281613dee565b601081526000602082016f4e6f20766163616e74207072697a657360801b81529150613742565b602080825281016108c281613e1f565b602f81526000602082017f4552433732314d657461646174613a2055524920717565727920666f72206e6f81526e3732bc34b9ba32b73a103a37b5b2b760891b6020820152915061364b565b602080825281016108c281613e56565b6000613ec061302984612fe5565b905082815260208101848484011115613edb57613edb600080fd5b613054848285612c12565b600082601f830112613efa57613efa600080fd5b8151612563848260208601613eb2565b600060208284031215613f1f57613f1f600080fd5b81516001600160401b03811115613f3857613f38600080fd5b61256384828501613ee6565b601481526000602082017320b63932b0b23c9034b734ba34b0b634bd32b21760611b81529150613742565b602080825281016108c281613f44565b60168152600060208201754d616e6167656d656e742066656520746f6f2062696760501b81529150613742565b602080825281016108c281613f7f565b6013815260006020820172526f79616c74792066656520746f6f2062696760681b81529150613742565b602080825281016108c281613fbc565b6000614000825190565b602083018060005b8381101561355e57815161401c888261350c565b975060208301925050600101614008565b60006122798284613ff6565b600f81526000602082016e496e76616c6964207765696768747360881b81529150613742565b602080825281016108c281614039565b6000816108c2565b60006108c2825461406f565b600061408d825490565b808452600083815260208082209501949081905b8381101561355e576140b282614077565b6140bc888261350c565b975050600191820191016140a1565b602080825281016122798184614083565b60006135188383612bee565b60006140f2825190565b80845260209384019383018060005b8381101561355e57815161411588826140dc565b975060208301925050600101614101565b6020808252810161227981846140e8565b602481526000602082017f43616e2774207265696d6275727365206966207468657265206172652077696e8152636e65727360e01b6020820152915061364b565b602080825281016108c281614137565b601081526000602082016f15dc9bdb99c81d985b1d59481cd95b9d60821b81529150613742565b602080825281016108c281614188565b601081526000602082016f0a4cae6ead8e8e640dad2e6dac2e8c6d60831b81529150613742565b602080825281016108c2816141bf565b601081526000602082016f10995d1cc81b9bdd08185b1b1bddd95960821b81529150613742565b602080825281016108c2816141f6565b6000835b93506001600160fb1b0383111561424a5761424a600080fd5b60208302925061425b83858461300f565b50500190565b600061256382848661422d565b818352600060208401614231565b6020808252810161256381848661426e565b602c81526000602082017f4552433732313a206f70657261746f7220717565727920666f72206e6f6e657881526b34b9ba32b73a103a37b5b2b760a11b6020820152915061364b565b602080825281016108c28161428e565b602581526000602082017f4552433732313a207472616e736665722066726f6d20696e636f72726563742081526437bbb732b960d91b6020820152915061364b565b602080825281016108c2816142e7565b602481526000602082017f4552433732313a207472616e7366657220746f20746865207a65726f206164648152637265737360e01b6020820152915061364b565b602080825281016108c281614339565b601981526000602082017f4552433732313a20617070726f766520746f2063616c6c65720000000000000081529150613742565b602080825281016108c28161438a565b603281526000602082017f4552433732313a207472616e7366657220746f206e6f6e20455243373231526581527131b2b4bb32b91034b6b83632b6b2b73a32b960711b6020820152915061364b565b602080825281016108c2816143ce565b60208082527f4552433732313a206d696e7420746f20746865207a65726f206164647265737391019081526000613742565b602080825281016108c28161442d565b601c81526000602082017f4552433732313a20746f6b656e20616c7265616479206d696e7465640000000081529150613742565b602080825281016108c28161446f565b608081016144c18287612c09565b6144ce6020830186612c09565b6144db6040830185612d6d565b81810360608301526144ed8184612c3e565b9695505050505050565b80516108c281612b90565b60006020828403121561451757614517600080fd5b600061256384846144f756fea2646970667358221220a37559c0e478c8bbbc9f05421af3a34264557507f84d4cbe58553e2329b942b764736f6c63430008090033",
  "linkReferences": {},
  "deployedLinkReferences": {}
}